:0400000007EF00F016
:100008004C828BED13F049EF1DF0000E0101776F64
:10001800000E786F000E796F000EE26F000EE36F2E
:10002800000EE46F000EE56F000EE66F000EE76F3E
:10003800000EE86F000EE96F000EEA6F000E806F89
:10004800000E816F000E826F720ED36EF2EC1DF0FF
:10005800A0EC1AF0800E0001876F250E886F000E45
:10006800896F000E8A6F04EC1CF0F29EF29C9D9A38
:1000780015EC1EF0000E0101676F000E666F000E92
:100088009EEC1DF00001CE6FCE51D06FCF6B000EED
:100098009EEC1DF00001D16FD151CF110101A16F6C
:1000A8000001D0510101A26F000E9EEC1DF000016D
:1000B800CE6FCE51D06FCF6B000E9EEC1DF00001BD
:1000C800D16FD151CF110101A36F0001D0510101AE
:1000D800A46F000E9EEC1DF00001CE6FCE51D06FC4
:1000E800CF6B000E9EEC1DF00001D16FD151CF11E6
:1000F8000101A56F0001D0510101A66F000E9EEC11
:100108001DF00001CE6FCE51D06FCF6B000E9EEC6C
:100118001DF00001D16FD151CF110101A76F00016E
:10012800D0510101A86F000E9EEC1DF00001CE6FAA
:10013800CE51D06FCF6B000E9EEC1DF00001D16F39
:10014800D151CF110101A96F0001D0510101AA6F4E
:10015800000E9EEC1DF00001CE6FCE51D06FCF6B1C
:10016800000E9EEC1DF00001D16FD151CF1101019D
:10017800AB6F0001D0510101AC6F000E9EEC1DF079
:100188000001CE6FCE51D06FCF6B010E9EEC1DF0EB
:100198000001D16FD151CF110101AD6F0001D051D4
:1001A8000101AE6F25EC1EF0A1C11CF0A2C11DF02B
:1001B80012EC1DF01CC037F01DC038F01EC039F01D
:1001C800000E3A6E800E3B6E460E3C6E48EC17F001
:1001D80037C0C7F138C0C8F139C0C9F1A3C11CF094
:1001E800A4C11DF012EC1DF01CC037F01DC038F082
:1001F8001EC039F0000E3A6E800E3B6E460E3C6E05
:1002080048EC17F037C0CAF138C0CBF139C0CCF18F
:10021800A5C11CF0A6C11DF012EC1DF01CC037F0E2
:100228001DC038F01EC039F0000E3A6E800E3B6ECD
:10023800460E3C6E48EC17F037C0CDF138C0CEF111
:1002480039C0CFF1A9C11CF0AAC11DF012EC1DF0F4
:100258001CC037F01DC038F01EC039F0000E3A6ED1
:10026800030E3B6E430E3C6E48EC17F037C0D0F1DE
:1002780038C0D1F139C0D2F1ABC11CF0ACC11DF00E
:1002880012EC1DF01CC037F01DC038F01EC039F04C
:10029800000E3A6E030E3B6E430E3C6E48EC17F0B0
:1002A80037C0D3F138C0D4F139C0D5F1ADC11CF095
:1002B800AEC11DF012EC1DF01CC037F01DC038F0A7
:1002C8001EC039F0000E3A6E030E3B6E430E3C6EB4
:1002D80048EC17F037C0D6F138C0D7F139C0D8F19B
:1002E800000E3A6EAA0E3B6E430E3C6EA7C11CF080
:1002F800A8C11DF012EC1DF01CC037F01DC038F06D
:100308001EC039F048EC17F037C07BF038C07CF0DD
:1003180039C07DF01F0E00017E6F120E7F6F420EF6
:10032800806F81EC10F07BC08AF17CC08BF17DC0BE
:100338008CF1C7C1A8F0C8C1A9F0C9C1AAF0CAC147
:10034800ABF0CBC1ACF0CCC1ADF0CDC1AEF0CEC1FD
:10035800AFF0CFC1B0F0D0C1B1F0D1C1B2F0D2C1CD
:10036800B3F0D3C1B4F0D4C1B5F0D5C1B6F0D6C19D
:10037800B7F0D7C1B8F0D8C1B9F0EB0E0001BA6F29
:10038800010EBB6FE20EBC6F010EBD6FE50EBE6FB6
:10039800010EBF6FE80EC06F010EC16FDDEC0CF0EF
:1003A800F28EF28C9D8A92EC1BF02EC083F12FC046
:1003B80084F130C085F131C086F183C1C0F084C1B9
:1003C800C1F085C1C2F086C1C3F052EC15F001013D
:1003D8005051D7EC19F089C0D9F18AC0DAF18BC035
:1003E800DBF1D9C187F0DAC188F0DBC189F0EFEC25
:1003F80012F087C0D9F188C0DAF189C0DBF10101B8
:10040800525191EC19F089C0DCF18AC0DDF18BC042
:10041800DEF1DCC187F0DDC188F0DEC189F0EFECE8
:1004280012F087C0DCF188C0DDF189C0DEF101017E
:10043800575157EC1BF089C087F18AC088F18BC0EF
:1004480089F1D9C1A8F0DAC1A9F0DBC1AAF0DCC1F1
:10045800ABF0DDC1ACF0DEC1ADF0AF0E0001AE6FA8
:10046800010EAF6FB20EB06F010EB16FB50EB26F65
:10047800010EB36F58EC11F0000E0101656F000E0C
:10048800646FB80E146E010E156E000E176E000E16
:10049800166E000E196E0F0E186E62EC1DF0B80E77
:1004A8000001956F010E966FDD0E976F7F0E986FA6
:1004B80095EC04F0B80E156E010E166EC8EC1CF023
:1004C800680E156E010E166EC8EC1CF0F90E156E4E
:1004D8007F0E166EC8EC1CF0B80E146E010E156E69
:1004E800000E176E000E166E000E196E0F0E186EA7
:1004F80062EC1DF0B80E0001956F010E966FD20EDA
:10050800976F7F0E986F95EC04F0B80E156E010E7C
:10051800166EC8EC1CF0B80E0001956F010E966FB0
:10052800F10E976F7F0E986FD9C199F0DAC19AF0E2
:10053800DBC19BF095EC04F0B80E156E010E166E3B
:10054800C8EC1CF0B80E146E010E156E000E176E76
:10055800000E166E000E196E0F0E186E62EC1DF06E
:10056800B80E0001956F010E966FC60E976F7F0E3D
:10057800986F95EC04F0B80E156E010E166EC8EC67
:100588001CF0B80E0001956F010E966FF10E976F73
:100598007F0E986FDCC199F0DDC19AF0DEC19BF047
:1005A80095EC04F0B80E156E010E166EC8EC1CF032
:1005B800B80E146E010E156E000E176E000E166E34
:1005C800000E196E0F0E186E62EC1DF0B80E0001C9
:1005D800956F010E966FD20E976F7F0E986F95EC00
:1005E80004F0B80E156E010E166EC8EC1CF0B80EAD
:1005F800146E010E156E000E176E000E166E000EAC
:10060800196E0F0E186E62EC1DF0B80E0001956F92
:10061800010E966F840E976F7F0E986F87C199F0C1
:1006280088C19AF089C19BF095EC04F0B80E156E5C
:10063800010E166EC8EC1CF0E2C1A2F0E3C1A3F0F3
:10064800E4C1A4F09AEC18F0A2C0DFF1A3C0E0F175
:10065800A4C0E1F1DFC128F0E0C129F0E1C12AF02E
:10066800EBC12BF0ECC12CF0EDC12DF0CEEC16F067
:1006780028C07AF129C07BF12AC07CF1E5C1A2F03B
:10068800E6C1A3F0E7C1A4F09AEC18F0A2C0DFF12C
:10069800A3C0E0F1A4C0E1F1DFC128F0E0C129F076
:1006A800E1C12AF0EBC12BF0ECC12CF0EDC12DF02B
:1006B800CEEC16F028C07DF129C07EF12AC07FF16A
:1006C800E8C1A2F0E9C1A3F0EAC1A4F09AEC18F0DD
:1006D800A2C0DFF1A3C0E0F1A4C0E1F1DFC128F0BE
:1006E800E0C129F0E1C12AF0EBC12BF0ECC12CF0FC
:1006F800EDC12DF0CEEC16F028C080F129C081F1B3
:100708002AC082F18D0E0001956F010E966F8B0E37
:10071800976F7F0E986FC7C199F0C8C19AF0C9C189
:100728009BF095EC04F08D0E156E010E166EC8EC5C
:100738001CF08D0E0001956F010E966F9A0E976F43
:100748007F0E986FCAC199F0CBC19AF0CCC19BF0CB
:1007580095EC04F08D0E156E010E166EC8EC1CF0AB
:100768008D0E0001956F010E966FA90E976F7F0E83
:10077800986FCDC199F0CEC19AF0CFC19BF095EC9E
:1007880004F08D0E156E010E166EC8EC1CF08D0E61
:100798000001956F010E966FB80E976F7F0E986FD8
:1007A8008AC199F08BC19AF08CC19BF0000E9D6FA5
:1007B800F80E9C6F95EC04F08D0E156E010E166EFA
:1007C800C8EC1CF08D0E0001956F010E966F4F0E50
:1007D800976F7F0E986FD0C199F0D1C19AF0D2C1AE
:1007E8009BF0000E9D6FF80E9C6F95EC04F08D0E3B
:1007F800156E010E166EC8EC1CF08D0E0001956F7B
:10080800010E966F5E0E976F7F0E986FD3C199F0A9
:10081800D4C19AF0D5C19BF0000E9D6FF80E9C6F65
:1008280095EC04F08D0E156E010E166EC8EC1CF0DA
:100838008D0E0001956F010E966F6D0E976F7F0EEE
:10084800986FD6C199F0D7C19AF0D8C19BF0000E25
:100858009D6FF80E9C6F95EC04F08D0E156E010ED1
:10086800166EC8EC1CF08D0E0001956F010E966F88
:100878001C0E976F7F0E986FE2C199F0E3C19AF052
:10088800E4C19BF095EC04F08D0E156E010E166E0A
:10089800C8EC1CF08D0E0001956F010E966F2D0EA1
:1008A800976F7F0E986FE5C199F0E6C19AF0E7C19E
:1008B8009BF095EC04F08D0E156E010E166EC8ECCB
:1008C8001CF08D0E0001956F010E966F3E0E976F0E
:1008D8007F0E986FE8C199F0E9C19AF0EAC19BF0E0
:1008E80095EC04F08D0E156E010E166EC8EC1CF01A
:1008F8008D0E0001956F010E966F7C0E976F7F0E1F
:10090800986FEBC199F0ECC19AF0EDC19BF095ECB2
:1009180004F08D0E156E010E166EC8EC1CF039EF42
:1009280000F0990E0001AC6F000EAD6FD1EF08F02A
:10093800250EBF19D8B40AD095C0D9FF96C0DAFFE2
:10094800BFC0DFFF954B962BD1EF08F0000EAF6FBD
:10095800000EAE6F97C0F6FF98C0F7FF0800F5507D
:100968002E0AD8A42FD0AF8D974B982B000EBE6FB0
:10097800000EBD6F1CD0BDC022F0BEC023F0000E1B
:10098800256E0A0E246E78EC1DF097C0F6FF98C00D
:10099800F7FF0800F5502226000E2322D00E22244D
:1009A8000001BD6FFF0E2320BE6F974B982B97C099
:1009B800F6FF98C0F7FF0800F550E3EC1DF0D8A04B
:1009C80043D0D9D7000E0001BE6F000EBD6FAF89AE
:1009D8003BD0AF8553D0BD51BE11D8B419D0AA5160
:1009E800BD5DAB51BE59D8B013D0BDC0AAF0BEC0D2
:1009F800ABF00ED0A8C0D9FFA9C0DAFF95C0E1FFBF
:100A080096C0E2FFDFCFE7FFA84BA92B954B962BAB
:100A1800AA07D8A0AB07AA29EDE1AB29D8B4BDD362
:100A2800E9D7ACC0D9FFADC0DAFFDF50BF6F020E07
:100A3800AC27000EAD23BF0EA86F000EA96F000EE5
:100A4800AB6F010EAA6FC7D797C0F6FF98C0F7FF24
:100A58000001974B982B0800F5CFBFF0BF51000A53
:100A6800D8B4A8D3630AD8B4DCD7070AD8B406D058
:100A7800020AD8B4AED70F0AD8A4DDD7070EAF152F
:100A8800D8B4C9D2AFA904D0000EBE6F060EBD6F90
:100A9800ACC0D9FFADC0DAFFDECFBAF0DECFBBF015
:100AA800DDCFBCF0030EAC27000EAD23BCAF11D0D8
:100AB800BAC037F0BBC038F0BCC039F0C2EC1DF08A
:100AC80037C0BAF038C0BBF039C0BCF0030E000123
:100AD800AE13000EB16F000EB06FBA51BB11BC114E
:100AE800D8B486D0820E9F6FFF0EA06FBAC0A1F057
:100AF800BBC0A2F0BCC0A3F0BDC0A4F0100E05D0CE
:100B0800D890A433A333A233A133E82EF9D7A15147
:100B18009F25B06F000EA021B16FB007D8A0B10714
:100B2800B0C022F0B1C023F0000E256E030E246E73
:100B380078EC1DF022C0B0F023C0B1F0B0C01AF0BC
:100B4800B1C01BF0000E1D6E0A0E1C6E1DEC1AF0D3
:100B58001AC0B0F01BC0B1F00001B1AF03D0B007AC
:100B6800D8A0B107B0510008E5EC08F037C0B2F0E2
:100B780038C0B3F039C0B4F0B2C028F0B3C029F01F
:100B8800B4C02AF0BAC02BF0BBC02CF0BCC02DF00A
:100B9800CEEC16F028C0B2F029C0B3F02AC0B4F0E9
:100BA800B2C014F0B3C015F0B4C016F0000E176E42
:100BB800800E186E3F0E196E49EC19F0D8B005D0AA
:100BC8000001B007D8A0B10713D0B2C014F0B3C069
:100BD80015F0B4C016F0000E176E200E186E410EF8
:100BE800196E49EC19F0D8A003D00001B04BB12B15
:100BF8000001BEBF06D0BE511BE10D0EBD5DD8B0D1
:100C080017D0BAC07BF0BBC07CF0BCC07DF0BD5132
:100C180058EC0FF037C07EF038C07FF039C080F054
:100C280081EC10F07BC0BAF07CC0BBF07DC0BCF09A
:100C38000001B1BF06D0B15120E10A0EB05DD8B0B5
:100C48001CD0BA51BB11BC11D8B456D0BAC040F0B0
:100C5800BBC041F0BCC042F0D8EC15F04050411088
:100C680042104310D8A448D00001B1BF45D0B151BB
:100C780004E1020EB05DD8A03FD0B2C014F0B3C0FA
:100C880015F0B4C016F0700E176E890E186E400E6F
:100C9800196E49EC19F0D8B003D00001F70E02D054
:100CA8000001F80EB027FF0EB123B051E5EC08F0B3
:100CB80037C0B2F038C0B3F039C0B4F0BAC014F0DD
:100CC800BBC015F0BCC016F0B2C017F0B3C018F026
:100CD800B4C019F025EC14F014C0B6F015C0B7F084
:100CE80016C0B8F017C0B9F0000E0001BA6F000EB8
:100CF800BB6F000EBC6F33D0BAC040F0BBC041F030
:100D0800BCC042F0D8EC15F040C0B6F041C0B7F016
:100D180042C0B8F043C0B9F0BAC08FF0BBC090F081
:100D2800BCC091F0B6C01CF0B7C01DF0B8C01EF032
:100D3800B9C01FF06FEC1CF01CC092F01DC093F0FE
:100D48001EC094F0F1EC1CF08FC0BAF090C0BBF05C
:100D580091C0BCF0000E0001B16F000EB06F010E23
:100D6800BF6F0A0EBF19D8B418D0BF51040D8B0E2F
:100D7800F324F66E7E0EF420F76E0900F550B65D8A
:100D88000900F550B7590900F550B8590900F55050
:100D9800B959D8A002D0BF2BE4D7030EAE159F6F68
:100DA800000EAF15A06F9F51A011D8B450D095C0B8
:100DB800D9FF96C0DAFF2D0E47D0B6C01DF0B7C0D8
:100DC8001EF0B8C01FF0B9C020F0BF51040D8B0E43
:100DD800F324F66E7E0EF420F76E0900F5CF21F0AD
:100DE8000900F5CF22F00900F5CF23F00A00F5CF6E
:100DF80024F05FEC1AF01DC0B2F01EC0B3F01FC0A3
:100E0800B4F020C0B5F0B2C014F0B3C015F0B4C04F
:100E180016F0B5C017F00A0E186E000E196E000E07
:100E28001A6E000E1B6E3CEC1CF014C0B2F015C01C
:100E3800B3F016C0B4F017C0B5F00001B251300FCE
:100E480095C0D9FF96C0DAFFDF6E954B962BBF078A
:100E5800BF29D8B40CD0B1D795C0D9FF96C0DAFF56
:100E6800300EDF6E954B962BB007D8A0B107B1BFF7
:100E780005D0B151F1E1B005D8B0EED7BEBF09D069
:100E8800BE5104E1090EBD5DD8A003D0080EBF6FA6
:100E980002D0BDC0BFF0BF51BD5F000EBFBFFF0E87
:100EA800BE5BBF51D8B408D095C0D9FF96C0DAFF51
:100EB8002E0EDF6E954B962BBF51E5EC08F037C030
:100EC800A5F038C0A6F039C0A7F0BAC02BF0BBC057
:100ED8002CF0BCC02DF0A5C028F0A6C029F0A7C0F2
:100EE8002AF0CEEC16F028C040F029C041F02AC004
:100EF80042F0D8EC15F040C0B6F041C0B7F042C09F
:100F0800B8F043C0B9F071D0B6C01DF0B7C01EF03C
:100F1800B8C01FF0B9C020F00001BF51040D8B0EFE
:100F2800F324F66E7E0EF420F76E0900F5CF21F05B
:100F38000900F5CF22F00900F5CF23F00A00F5CF1C
:100F480024F05FEC1AF01DC0B2F01EC0B3F01FC051
:100F5800B4F020C0B5F0B2C014F0B3C015F0B4C0FE
:100F680016F0B5C017F00A0E186E000E196E000EB6
:100F78001A6E000E1B6E3CEC1CF014C0B2F015C0CB
:100F8800B3F016C0B4F017C0B5F00001B251300F7D
:100F980095C0D9FF96C0DAFFDF6E954B962BB6C089
:100FA80014F0B7C015F0B8C016F0B9C017F0BF51AB
:100FB800040D8B0EF324F66E7E0EF420F76E0900F6
:100FC800F5CF18F00900F5CF19F00900F5CF1AF0A0
:100FD8000A00F5CF1BF03CEC1CF014C0B6F015C0AD
:100FE800B7F016C0B8F017C0B9F00001BF07BF29A5
:100FF800D8B40CD089D795C0D9FF96C0DAFF300E87
:10100800DF6E954B962BBD07D8A0BE07BD51BE110C
:10101800D8B4C3D0F0D7ACC0D9FFADC0DAFFDECFAB
:10102800B6F0DDCFB7F0000EB7BFFF0EB86FB96FDF
:10103800020EAC27000EAD23B9AF0AD0030EAE13D3
:10104800B91FB81FB71FB66D000EB723B823B92351
:10105800BD51BE11D8A408D0B651B711B811B911F5
:10106800D8A402D0BD4BBE2B010EBF6F0A0EBF190C
:10107800D8B418D0BF51040D8B0EF324F66E7E0E33
:10108800F420F76E0900F550B65D0900F550B75920
:101098000900F550B8590900F550B959D8A002D03F
:1010A800BF2BE4D7800EBFBF7F0E9F6FBD51BF5DC2
:1010B800BE51800A9F59D8B003D0BDC0BFF010D030
:1010C800BE51800A9F6FBF51BD5D800EBFBF7F0EAE
:1010D8009F59D8B005D0BF51BD6FBE6BBDBFBE070D
:1010E800030EAE159F6F000EAF15A06F9F51A01194
:1010F800D8B44BD095C0D9FF96C0DAFF2D0EDF6E5D
:1011080042D0BDC09FF0BEC0A0F0D8909F37A03796
:10111800D8909F37A0378B0E9F25F66E7E0EA021A4
:10112800F76E0900F5CF21F00900F5CF22F009008C
:10113800F5CF23F00A00F5CF24F0B6C01DF0B7C0F4
:101148001EF0B8C01FF0B9C020F05FEC1AF01DC047
:1011580014F01EC015F01FC016F020C017F00A0EBC
:10116800186E000E196E000E1A6E000E1B6E3CEC07
:101178001CF01450300F0001BF6F95C0D9FF96C006
:10118800DAFFBFC0DFFF954B962BBD07D8A0BE077F
:10119800BD29B7E1BE29D8A4B4D797C0F6FF98C037
:1011A800F7FF974B982B0800F5CFBFF0BF51D8A495
:1011B8009CEF04F095C0D9FF96C0DAFF000EDF6EF1
:1011C80012003D6E3DAE01D13D6C3D50800A120FBC
:1011D800D8A091D0000E256E030E246E000E1D6E51
:1011E8000A0E1C6E000E176E640E166E3D50146EBD
:1011F800156A14BE1506CCEC1BF014C01AF015C005
:101208001BF01DEC1AF0090E1A24226E000E1B208A
:10121800236E78EC1DF0DA0E2224F66E7E0E232063
:10122800F76E0900F5CF2BF00900F5CF2CF00A0076
:10123800F5CF2DF0000E1D6E640E1C6E3D501A6E1B
:101248001B6A1ABE1B061DEC1AF0120E1A24226E17
:10125800000E1B20236E000E256E030E246E78EC04
:101268001DF0DA0E2224F66E7E0E2320F76E09009A
:10127800F5CF28F00900F5CF29F00A00F5CF2AF0BC
:10128800CEEC16F028C03AF029C03BF02AC03CF05A
:101298003AC028F03BC029F03CC02AF0000E256E69
:1012A800030E246E000E176E0A0E166E3D50146E55
:1012B800156A14BE1506CCEC1BF014C022F015C03C
:1012C80023F078EC1DF0DA0E2224F66E7E0E232031
:1012D800F76E0900F5CF2BF00900F5CF2CF00A00C6
:1012E800F5CF2DF0CEEC16F028C037F029C038F035
:1012F8002AC039F012003D50800A750FD8A053D08B
:10130800000E1D6E0A0E1C6E3D501A6E1B6A1ABE28
:101318001B061DEC1AF0090E1A24226E000E1B2063
:10132800236E000E256E030E246E78EC1DF0DA0E87
:101338002224F66E7E0E2320F76E0900F5CF28F0E2
:101348000900F5CF29F00A00F5CF2AF0000E256E26
:10135800030E246E000E176E0A0E166E3D50146EA4
:10136800156A14BE1506CCEC1BF014C022F015C08B
:1013780023F078EC1DF0DA0E2224F66E7E0E232080
:10138800F76E0900F5CF2BF00900F5CF2CF00A0015
:10139800F5CF2DF0CEEC16F028C037F029C038F084
:1013A8002AC039F012003D50030DDA0EF324F66E10
:1013B8007E0EF420F76E0900F5CF37F00900F5CF5F
:1013C80038F00A00F5CF39F012003D50800A120FAC
:1013D800D8A091D0000E256E030E246E000E1D6E4F
:1013E8000A0E1C6E000E176E640E166E3D50146EBB
:1013F800156A14BE1506CCEC1BF014C01AF015C003
:101408001BF01DEC1AF0090E1A24226E000E1B2088
:10141800236E78EC1DF0B30E2224F66E7E0E232088
:10142800F76E0900F5CF2BF00900F5CF2CF00A0074
:10143800F5CF2DF0000E1D6E640E1C6E3D501A6E19
:101448001B6A1ABE1B061DEC1AF0120E1A24226E15
:10145800000E1B20236E000E256E030E246E78EC02
:101468001DF0B30E2224F66E7E0E2320F76E0900BF
:10147800F5CF28F00900F5CF29F00A00F5CF2AF0BA
:10148800CEEC16F028C03AF029C03BF02AC03CF058
:101498003AC028F03BC029F03CC02AF0000E256E67
:1014A800030E246E000E176E0A0E166E3D50146E53
:1014B800156A14BE1506CCEC1BF014C022F015C03A
:1014C80023F078EC1DF0B30E2224F66E7E0E232056
:1014D800F76E0900F5CF2BF00900F5CF2CF00A00C4
:1014E800F5CF2DF0CEEC16F028C037F029C038F033
:1014F8002AC039F012003D50800A750FD8A053D089
:10150800000E1D6E0A0E1C6E3D501A6E1B6A1ABE26
:101518001B061DEC1AF0090E1A24226E000E1B2061
:10152800236E000E256E030E246E78EC1DF0B30EAC
:101538002224F66E7E0E2320F76E0900F5CF28F0E0
:101548000900F5CF29F00A00F5CF2AF0000E256E24
:10155800030E246E000E176E0A0E166E3D50146EA2
:10156800156A14BE1506CCEC1BF014C022F015C089
:1015780023F078EC1DF0B30E2224F66E7E0E2320A5
:10158800F76E0900F5CF2BF00900F5CF2CF00A0013
:10159800F5CF2DF0CEEC16F028C037F029C038F082
:1015A8002AC039F012003D50030DB30EF324F66E35
:1015B8007E0EF420F76E0900F5CF37F00900F5CF5D
:1015C80038F00A00F5CF39F0120000017D517E1184
:1015D800D8B40CD07DC0D9FF7EC0DAFF7BC0DEFF57
:1015E8007CC0DDFF03D000017B4B7C2B7BC0D9FF87
:1015F8007CC0DAFFDF507F6F7F518BEC1DF0D8B0D5
:10160800F2D7000E0001806F2D0E7F19D8A403D0E9
:10161800010E806F04D02B0E7F19D8A402D07B4B0B
:101628007C2B000E7F6F000E826F000E836F000E02
:10163800846F000E856F000E816F80B90AD07BC061
:10164800D9FF7CC0DAFF2E0EDE18D8A402D080891C
:101658003ED07BC0D9FF7CC0DAFFDF50E3EC1DF041
:10166800D8A038D000018083080E7F19D8B42DD0B7
:1016780080B981077F2B82C014F083C015F084C025
:1016880016F085C017F00A0E186E000E196E000EBF
:101698001A6E000E1B6E9DEC1CF014C082F015C073
:1016A80083F016C084F017C085F07BC0D9FF7CC0DA
:1016B800DAFFDF50446ED00E4426445000018227E2
:1016C800000E83238423852302D080A9812B7B4BA2
:1016D8007C2BB3D7000E00017F6F7BC0D9FF7CC085
:1016E800DAFF650EDE18D8B408D07BC0D9FF7CC0FD
:1016F800DAFF450EDE18D8A462D07B4B7C2B7BC06A
:10170800D9FF7CC0DAFF2D0EDE18D8A402D080875E
:1017180008D07BC0D9FF7CC0DAFF2B0EDE18D8A416
:1017280002D07B4B7C2B7BC0D9FF7CC0DAFF300E0C
:10173800DE18D8B4F6D77BC0D9FF7CC0DAFFDF50FB
:10174800E3EC1DF0D8A038D07BC0D9FF7CC0DAFF0D
:10175800DF50D00F00017F6F7B4B7C2B7BC0D9FF04
:101768007CC0DAFFDF50E3EC1DF0D8A025D07BC0A9
:10177800D9FF7CC0DAFFDF50446E00017F510A0DAB
:10178800F3504424D00F7F6F7B4B7C2B7BC0D9FF59
:101798007CC0DAFFDF50E3EC1DF0D8A00DD07BC091
:1017A800D9FF7CC0DAFFDF50446E00017F510A0D7B
:1017B800F3504424D00F7F6F000180B77F6D7F51B5
:1017C80081277D517E11D8A480A308D07DC0D9FF80
:1017D8007EC0DAFF7BC0DEFF7CC0DDFF82C071F017
:1017E80083C072F084C073F085C074F0DEEC1AF028
:1017F80071C082F072C083F073C084F0000182511E
:1018080083118411D8A407D0000E7B6F000E7C6F63
:10181800000E7D6F120081AF59D0816D17D082C044
:1018280037F083C038F084C039F0030E3A6E150ED5
:101838003B6E500E3C6E48EC17F037C082F038C053
:1018480083F039C084F0F60E000181278151800AA7
:10185800760FD8A017D0E3D782C037F083C038F00E
:1018680084C039F0000E3A6E200E3B6E410E3C6E7D
:1018780048EC17F037C082F038C083F039C084F0E4
:10188800000181078151D8A4E7D782C014F083C032
:1018980015F084C016F0000E176E800E186E000E3C
:1018A800196E49EC19F0D8B06CD0000180A107D0AE
:1018B800000E7B6F800E7C6F800E7D6F1200000E15
:1018C8007B6F800E7C6F000E7D6F12008151800A45
:1018D8007F0FD8B018D055D082C028F083C029F027
:1018E80084C02AF0030E2B6E150E2C6E500E2D6E32
:1018F800CEEC16F028C082F029C083F02AC084F00C
:10190800F60E000181270A0E8161E6D716D082C043
:1019180028F083C029F084C02AF0000E2B6E200E18
:101928002C6E410E2D6ECEEC16F028C082F029C028
:1019380083F02AC084F0000181078151D8A4E7D739
:10194800FF0E146E7F0E156E7F0E166E82C017F096
:1019580083C018F084C019F049EC19F0D8B011D040
:10196800000180A107D0000E7B6F800E7C6F800E77
:101978007D6F1200000E7B6F800E7C6F000E7D6FF6
:101988001200000180A10ED082C037F083C038F069
:1019980084C039F0C2EC1DF037C082F038C083F043
:1019A80039C084F082C07BF083C07CF084C07DF0B5
:1019B8001200D8C07BF0D9C07CF0DAC07DF0B70E39
:1019C8002B6ED10E2C6E380E2D6EA8C028F0A9C033
:1019D80029F0AAC02AF0CEEC16F028C07EF029C063
:1019E8007FF02AC080F081EC10F07BC0D8F07CC07A
:1019F800D9F07DC0DAF0D5C07BF0D6C07CF0D7C076
:101A08007DF0B70E2B6ED10E2C6E380E2D6EABC03E
:101A180028F0ACC029F0ADC02AF0CEEC16F028C0F2
:101A28007EF029C07FF02AC080F081EC10F07BC0E6
:101A3800D5F07CC0D6F07DC0D7F0D2C07BF0D3C043
:101A48007CF0D4C07DF0B70E2B6ED10E2C6E380E04
:101A58002D6EAEC028F0AFC029F0B0C02AF0CEEC91
:101A680016F028C07EF029C07FF02AC080F081ECF3
:101A780010F07BC0D2F07CC0D3F07DC0D4F0D5C0CC
:101A88002BF0D6C02CF0D7C02DF0D5C028F0D6C08A
:101A980029F0D7C02AF0CEEC16F028C07EF029C075
:101AA8007FF02AC080F0D8C02BF0D9C02CF0DAC063
:101AB8002DF0D8C028F0D9C029F0DAC02AF0CEEC31
:101AC80016F028C07BF029C07CF02AC07DF081EC9C
:101AD80010F07BC0C2F07CC0C3F07DC0C4F0C2C0AF
:101AE8007BF0C3C07CF0C4C07DF0D2C02BF0D3C063
:101AF8002CF0D4C02DF0D2C028F0D3C029F0D4C027
:101B08002AF0CEEC16F028C07EF029C07FF02AC05B
:101B180080F081EC10F07BC0C5F07CC0C6F07DC0C1
:101B2800C7F0C5C095F0C6C096F0C7C097F026ECC0
:101B380012F0BAC0D9FFBBC0DAFF95C0DEFF96C06D
:101B4800DEFF97C0DEFFBCC0D9FFBDC0DAFFDECF25
:101B58007BF0DECF7CF0DDCF7DF0D70E2B6E230E31
:101B68002C6E3C0E2D6EB1C028F0B2C029F0B3C067
:101B78002AF0CEEC16F028C07EF029C07FF02AC0EB
:101B880080F081EC10F0BCC0D9FFBDC0DAFF7BC08B
:101B9800DEFF7CC0DEFF7DC0DEFFBEC0D9FFBFC058
:101BA800DAFFDECF7BF0DECF7CF0DDCF7DF0D70E25
:101BB8002B6E230E2C6E3C0E2D6EB4C028F0B5C0D3
:101BC80029F0B6C02AF0CEEC16F028C07EF029C065
:101BD8007FF02AC080F081EC10F0BEC0D9FFBFC0F2
:101BE800DAFF7BC0DEFF7CC0DEFF7DC0DEFFC0C049
:101BF800D9FFC1C0DAFFDECF7BF0DECF7CF0DDCFCE
:101C08007DF0D70E2B6E230E2C6E3C0E2D6EB7C0BA
:101C180028F0B8C029F0B9C02AF0CEEC16F028C0D8
:101C28007EF029C07FF02AC080F081EC10F0C0C09F
:101C3800D9FFC1C0DAFF7BC0DEFF7CC0DEFF7DC0FC
:101C4800DEFF1200000E0001A16F97AF11D095C002
:101C580037F096C038F097C039F0C2EC1DF037C0A5
:101C680095F038C096F039C097F0010E0001A16FC9
:101C780095C028F096C029F097C02AF0FA0E2B6E6E
:101C8800220E2C6E3E0E2D6ECEEC16F028C095F06E
:101C980029C096F02AC097F095C08FF096C090F0B2
:101CA80097C091F095C087F096C088F097C089F0EA
:101CB800BCEC17F087C092F088C093F089C094F00C
:101CC800F1EC1CF08FC095F090C096F091C097F0A1
:101CD80095C028F096C029F097C02AF0000E2B6E08
:101CE800800E2C6E400E2D6ECEEC16F028C095F0AE
:101CF80029C096F02AC097F0000E146E000E156EDB
:101D0800400E166E95C017F096C018F097C019F0DF
:101D180049EC19F0D8B01DD095C08FF096C090F05E
:101D280097C091F0000E0001926F000E936F400E65
:101D3800946FF1EC1CF08FC095F090C096F091C0B4
:101D480097F00001A151D8A402D0010E01D0000ED5
:101D5800A16F000E146E800E156E3F0E166E95C0A4
:101D680017F096C018F097C019F049EC19F0D8B0E0
:101D78001DD095C037F096C038F097C039F0C2EC46
:101D88001DF037C07BF038C07CF039C07DF0000E04
:101D980000017E6F000E7F6F400E806F81EC10F0A7
:101DA8007BC095F07CC096F07DC097F095C028F078
:101DB80096C029F097C02AF095C02BF096C02CF059
:101DC80097C02DF0CEEC16F028C09EF029C09FF0E9
:101DD8002AC0A0F09EC087F09FC088F0A0C089F0FC
:101DE800100E00018A6F7F0E8B6F000E8D6F030E31
:101DF8008C6F2DEC18F087C098F088C099F089C0D6
:101E08009AF098C03AF099C03BF09AC03CF0000EA6
:101E180000018D6F040E8C6F010E8A6F7F0E8B6F21
:101E28009EC087F09FC088F0A0C089F02DEC18F004
:101E380087C037F088C038F089C039F048EC17F00F
:101E480037C09BF038C09CF039C09DF095C028F091
:101E580096C029F097C02AF09BC02BF09CC02CF0AC
:101E68009DC02DF0CEEC16F028C095F029C096F054
:101E78002AC097F00001A151D8B40FD095C037F00F
:101E880096C038F097C039F0C2EC1DF037C095F015
:101E980038C096F039C097F0120095C095F096C0FA
:101EA80096F097C097F01200406E6D0E40649FD078
:101EB800000E256E030E246E000E1D6E0A0E1C6E9B
:101EC800000E176E640E166E40C014F0156ACCEC46
:101ED8001BF014C01AF015C01BF01DEC1AF0090E07
:101EE8001A24226E000E1B20236E78EC1DF0DA0EE9
:101EF8002224F66E7E0E2320F76E0900F5CF2BF014
:101F08000900F5CF2CF00A00F5CF2DF0000E1D6E5C
:101F1800640E1C6E40C01AF01B6A1DEC1AF0120EFB
:101F28001A24226E000E1B20236E000E256E030E4F
:101F3800246E78EC1DF0DA0E2224F66E7E0E232035
:101F4800F76E0900F5CF28F00900F5CF29F00A004F
:101F5800F5CF2AF0CEEC16F028C03DF029C03EF0AF
:101F68002AC03FF0000E256E030E246E000E176E79
:101F78000A0E166E40C014F0156ACCEC1BF014C0A3
:101F880022F015C023F078EC1DF0DA0E2224F66E4C
:101F98007E0E2320F76E0900F5CF2BF00900F5CF50
:101FA8002CF00A00F5CF2DF03DC028F03EC029F0F6
:101FB8003FC02AF0CEEC16F028C03AF029C03BF01A
:101FC8002AC03CF03AC028F03BC029F03CC02AF0B7
:101FD800000E2B6E000E2C6E3F0E2D6ECEEC16F002
:101FE80028C037F029C038F02AC039F012000A0E8C
:101FF800406463D0000E256E030E246E000E176E2B
:102008000A0E166E40C014F0156ACCEC1BF014C012
:1020180022F015C023F078EC1DF0DA0E2224F66EBB
:102028007E0E2320F76E0900F5CF2BF00900F5CFBF
:102038002CF00A00F5CF2DF0000E1D6E0A0E1C6E56
:1020480040C01AF01B6A1DEC1AF0090E1A24226E01
:10205800000E1B20236E000E256E030E246E78ECF6
:102068001DF0DA0E2224F66E7E0E2320F76E09008C
:10207800F5CF28F00900F5CF29F00A00F5CF2AF0AE
:10208800CEEC16F028C03DF029C03EF02AC03FF043
:102098003DC028F03EC029F03FC02AF0000E2B6E4C
:1020A800000E2C6E3F0E2D6ECEEC16F028C037F0C9
:1020B80029C038F02AC039F012004050030DDA0E5A
:1020C800F324F66E7E0EF420F76E0900F5CF28F0A3
:1020D8000900F5CF29F00A00F5CF2AF0000E2B6E83
:1020E800000E2C6E3F0E2D6ECEEC16F028C037F089
:1020F80029C038F02AC039F012007DC081F00001F3
:10210800826B836B7C35813701E382818151866FD5
:1021180080C081F0826B836B7F35813701E38281D8
:102128008151856F8651D8B40BD08551865DD8B062
:102138000ED0865100088525816F180E816507D05D
:102148007EC07BF07FC07CF080C07DF0120085519E
:10215800D8B40BD08651855DD8B00ED08551000813
:102168008625816F180E816507D07BC07BF07CC007
:102178007CF07DC07DF01200060E846F7DBF848FD9
:1021880080BF848D7C8FFF0E7B17FF0E7C17000E9F
:102198007D177F8FFF0E7E17FF0E7F17000E8017AB
:1021A8008551865DD8B01BD0D8907E377F37803771
:1021B800850786518519D8B40DD0840784C081F06D
:1021C800070E8117D8B406D0EFD7D8907D337C336B
:1021D8007B33862B85518619D8B41FD0F6D7865104
:1021E800855DD8B01AD0D8907B377C377D37860785
:1021F80086518519D8B40DD0840784C081F0070EA4
:102208008117D8B406D0EFD7D89080337F337E3388
:10221800852B85518619D8A4F7D784AF0CD0FF0E2B
:102228007B1BFF0E7C1BFF0E7D1B010E7B27000E08
:102238007C23000E7D2384AD0CD0FF0E7E1BFF0E89
:102248007F1BFF0E801B010E7E27000E7F23000ED2
:102258008023000E846F7B517E277C517F237D5124
:10226800802380AF0ED0FF0E7E1BFF0E7F1BFF0E5C
:10227800801B010E7E27000E7F23000E8023010E97
:10228800846F7EC014F07FC015F080C016F086C041
:1022980017F084C018F0F2EC18F014C07BF015C0E9
:1022A8007CF016C07DF01200360E0001C46FB80E27
:1022B800C36FA8C0A2F0A9C0A3F0AAC0A4F09AEC6A
:1022C80018F0A2C0BDF0A3C0BEF0A4C0BFF0BDC04E
:1022D8002BF0BEC02CF0BFC02DF0C3C01CF0C4C092
:1022E8001DF012EC1DF01CC028F01DC029F01EC006
:1022F8002AF0CEEC16F028C0C0F029C0C1F02AC0E0
:10230800C2F0ABC0A2F0ACC0A3F0ADC0A4F09AEC90
:1023180018F0A2C0B4F0A3C0B5F0A4C0B6F0C0C015
:1023280028F0C1C029F0C2C02AF0B4C02BF0B5C053
:102338002CF0B6C02DF0CEEC16F0AEC0D9FFAFC071
:10234800DAFF28C0DEFF29C0DEFF2AC0DEFFA8C0F2
:10235800A2F0A9C0A3F0AAC0A4F09AEC18F0A2C0F9
:10236800BDF0A3C0BEF0A4C0BFF0BDC02BF0BEC07E
:102378002CF0BFC02DF0C3C01CF0C4C01DF012EC7F
:102388001DF01CC028F01DC029F01EC02AF0CEEC9C
:1023980016F028C0C0F029C0C1F02AC0C2F0ABC0F6
:1023A80095F0ACC096F0ADC097F026EC0EF095C055
:1023B800B7F096C0B8F097C0B9F0C0C028F0C1C057
:1023C80029F0C2C02AF0B7C02BF0B8C02CF0B9C0B1
:1023D8002DF0CEEC16F0B0C0D9FFB1C0DAFF28C09E
:1023E800DEFF29C0DEFF2AC0DEFFA8C095F0A9C025
:1023F80096F0AAC097F026EC0EF095C0BAF096C0F9
:10240800BBF097C0BCF0C3C01CF0C4C01DF012ECF8
:102418001DF01CC028F01DC029F01EC02AF0BAC04B
:102428002BF0BBC02CF0BCC02DF0CEEC16F0B2C027
:10243800D9FFB3C0DAFF28C0DEFF29C0DEFF2AC0FB
:10244800DEFF1200000E146E000E156E000E166EE2
:1024580095C017F096C018F097C019F049EC19F01C
:10246800D8A00ED0000197AF04D0000EDC6F210E6B
:10247800DB6F000E956F000E966F000E976F1200BF
:1024880095C09EF096C09FF097C0A0F095C098F0B8
:1024980096C099F097C09AF00001981F991F9A1F4B
:1024A800982B000E99239A23C80E9825A56F6E0EB7
:1024B8009921A66FBE0E9A21A76FD890A733A6338D
:1024C800A533000E9E5F800E9F5B000EA05B040E7E
:1024D800A16FA5C09BF0A6C09CF0A7C09DF0A5C0A9
:1024E80028F0A6C029F0A7C02AF09EC02BF09FC0F4
:1024F8002CF0A0C02DF0CEEC16F028C0A2F029C018
:10250800A3F02AC0A4F0A2C028F0A3C029F0A4C058
:102518002AF0A5C02BF0A6C02CF0A7C02DF0CEEC59
:1025280016F028C0A2F029C0A3F02AC0A4F0A2C0C7
:1025380028F0A3C029F0A4C02AF0A5C02BF0A6C09B
:102548002CF0A7C02DF0CEEC16F028C0A2F029C0C0
:10255800A3F02AC0A4F0A5C028F0A6C029F0A7C0FF
:102568002AF0000E2B6EC00E2C6E3F0E2D6ECEEC98
:1025780016F028C0A5F029C0A6F02AC0A7F0A5C06B
:102588008FF0A6C090F0A7C091F0A2C092F0A3C0AF
:1025980093F0A4C094F0F1EC1CF08FC0A5F090C0AB
:1025A800A6F091C0A7F00001A12F93D7A5C028F0ED
:1025B800A6C029F0A7C02AF095C02BF096C02CF031
:1025C80097C02DF0CEEC16F028C095F029C096F0F3
:1025D8002AC097F01200000E3A6EC80E3B6E420EEB
:1025E8003C6E87C037F088C038F089C039F048ECB5
:1025F80017F037C040F038C041F039C042F0D8EC8D
:1026080015F040C090F041C091F0000E2B6EC80E3E
:102618002C6E420E2D6E90C01CF091C01DF012EC75
:102628001DF01CC028F01DC029F01EC02AF0CEECF9
:1026380016F028C037F029C038F02AC039F0C2ECAB
:102648001DF037C07BF038C07CF039C07DF087C002
:102658007EF088C07FF089C080F081EC10F07BC0EC
:102668008AF07CC08BF07DC08CF08AC037F08BC0BC
:1026780038F08CC039F0000E3A6E700E3B6E420E88
:102688003C6E48EC17F037C08DF038C08EF039C07A
:102698008FF090C01CF091C01DF012EC1DF01CC012
:1026A8007BF01DC07CF01EC07DF08DC07EF08EC01A
:1026B8007FF08FC080F081EC10F07BC092F07CC07E
:1026C80093F07DC094F0530E0001DE19D8B404D005
:1026D800570EDD19D8A414D092C028F093C029F061
:1026E80094C02AF0000E2B6E800E2C6EBF0E2D6E3D
:1026F800CEEC16F028C092F029C093F02AC094F0CE
:1027080092C087F093C088F094C089F01200060048
:10271800FACF01F0FBCF02F0E9CF03F0EACF04F0E3
:10272800E1CF05F0E2CF06F0D9CF07F0DACF08F015
:10273800F3CF09F0F4CF0AF0F6CF0BF0F7CF0CF097
:10274800F8CF0DF0F5CF0EF04CC00FF04DC010F0E3
:102758004EC011F04FC012F09EAA4DD0F29EAECFDF
:1027680013F0ABA203D0AB9800F0AB88240E13187B
:10277800D8A409D0000E496E000E486E000E4A6EAD
:10278800000E4B6E38D04A04D8A41AD02C0E131859
:10279800D8A40BD04B50010D500EF324D96E010E66
:1027A800F420DA6E48C0DFFF4B2A000E4824D96EA9
:1027B800010E4920DA6E13C0DFFF484A492A1BD0B0
:1027C800470E4518D8A411D0470E4618D8A40DD0E6
:1027D800410E4718D8A409D0010E4A6E000E456E66
:1027E800000E466E000E476E06D046C045F047C044
:1027F80046F013C047F012C04FF011C04EF010C0A1
:102808004DF00FC04CF00EC0F5FF0DC0F8FF0CC026
:10281800F7FF0BC0F6FF0AC0F4FF09C0F3FF08C0BA
:10282800DAFF07C0D9FF06C0E2FF05C0E1FF04C018
:10283800EAFF03C0E9FF02C0FBFF01C0FAFF4C92A8
:10284800110016C01AF01B6A1C6A15341A3601E307
:102858001B801A50226E2250D8A409D0000E146E84
:10286800000E156E000E166E000E176E120019C0BF
:102878001AF01B6A1C6A18341A3601E31B801A50B6
:10288800216E2150D8A409D0000E146E000E156ECA
:10289800000E166E000E176E1200158EFF0E14161F
:1028A800FF0E1516000E1616188EFF0E1716FF0EC1
:1028B8001816000E1916000E1D6E000E1E6E000E64
:1028C8001F6E000E206E7F0E225E2150980F225E32
:1028D800180E216ED8901D361E361F36203617501A
:1028E800145C1850155819501658D8A007D017500E
:1028F800145E1850155A1950165A1D80D89014365F
:1029080015361636212EE6D722AE16D02250800A6A
:10291800970FD8B009D0000E146E000E156E000E79
:10292800166E000E176E1200D89020321F321E321B
:102938001D32223EF9D715D0170E22640FD0000E93
:10294800146E000E156E000E166E000E176E120035
:10295800D8901D361E361F36203622062250D8A49F
:10296800F7D71DC014F01EC015F01FC016F020C008
:1029780017F01200163417341F6E1F50D8A409D050
:10298800000E146E000E156E000E166E000E176EF9
:10299800120019341A341E6E1E50D8A409D0000E25
:1029A800146E000E156E000E166E000E176E1200D5
:1029B800168EFF0E1416FF0E1516FF0E1616000EB5
:1029C8001716198EFF0E1716FF0E1816FF0E19167A
:1029D800000E1A16000E1A6E000E1B6E000E1C6EEC
:1029E800000E1D6E7F0E1F5E1E50A00F1F5E200E74
:1029F8001E6ED8901A361B361C361D361750145CBE
:102A080018501558195016581A501758D8A009D0E8
:102A18001750145E1850155A1950165A1A50175A4A
:102A28001A80D89014361536163617361E2EE1D76A
:102A38001FAE16D01F50800A9F0FD8B009D0000EC5
:102A4800146E000E156E000E166E000E176E120034
:102A5800D8901D321C321B321A321F3EF9D715D0BE
:102A68001F0E1F640FD0000E146E000E156E000EA0
:102A7800166E000E176E1200D8901A361B361C36CA
:102A88001D361F061F50D8A4F7D71AC014F01BC054
:102A980015F01CC016F01DC017F01200C0C01DF0C4
:102AA800C1C01EF0C2C01FF0C3C020F0100E216EBE
:102AB800270E226E000E236E000E246E5FEC1AF0B5
:102AC8001DC0C8F01EC0C9F0100E186E270E196E72
:102AD800000E1A6E000E1B6EC0C014F0C1C015F0B7
:102AE800C2C016F0C3C017F03CEC1CF014C01DF0B7
:102AF80015C01EF016C01FF017C020F0640E216E1E
:102B0800000E226E000E236E000E246E5FEC1AF08B
:102B18001DC0CAF01EC0CBF0100E186E270E196E1D
:102B2800000E1A6E000E1B6EC0C014F0C1C015F066
:102B3800C2C016F0C3C017F03CEC1CF014C0C4F0BF
:102B480015C0C5F016C0C6F017C0C7F0C4C014F051
:102B5800C5C015F0C6C016F0C7C017F0640E186ED1
:102B6800000E196E000E1A6E000E1B6E3CEC1CF067
:102B780014C0CCF015C0CDF0680E0001956F010EA1
:102B8800966FE80E976F7F0E986FC8C099F0C9C00E
:102B98009AF0CAC09BF0CBC09CF0CCC09DF0CDC0D1
:102BA8009EF095EC04F0120042C066F00001676BDD
:102BB800686B4134663701E367816651706F705105
:102BC800D8A409D0000E406E000E416E000E426E71
:102BD800000E436E1200170E666F40C067F041C0CA
:102BE80068F042C069F066296A6F04D0D8906933EA
:102BF800683367336A2FFAD7000167516B6F418ECC
:102C0800FF0E4016FF0E4116000E421640506C6F24
:102C180041506D6F42506E6F6F6B8E0E705F70AF6C
:102C280016D07051800A8F0FD8B009D0000E406EB0
:102C3800000E416E000E426E000E436E1200D890D8
:102C48006F336E336D336C33703FF9D715D0170E71
:102C580070650FD0000E406E000E416E000E426E81
:102C6800000E436E1200D8906C376D376E376F3791
:102C780070077051D8A4F7D76B51D8B408D06F1F1C
:102C88006E1F6D1F6C6D000E6D236E236F236CC05D
:102C980040F06DC041F06EC042F06FC043F01200CA
:102CA80020C0D9FF21C0DAFFDF502D6E204A212A2B
:102CB800200E2D18D8B4F4D7090E2D18D8B4F0D793
:102CC800000E296E000E2A6E000E2B6E000E2C6E62
:102CD800000E286E2D0E2D18D8A402D0282A27D031
:102CE8002B0E2D18D8A42BD022D029C014F02AC01E
:102CF80015F02BC016F02CC017F00A0E186E000E37
:102D0800196E000E1A6E000E1B6E9DEC1CF02DC085
:102D180024F0D00E242624501424296E000E1520E9
:102D28002A6E000E16202B6E000E17202C6E20C067
:102D3800D9FF21C0DAFFDF502D6E204A212A2D50FD
:102D4800E3EC1DF0D8B0D1D72850D8B41AD029C098
:102D580024F02AC025F02BC026F02CC027F0241E12
:102D6800251E261E271E242A000E2522262227225B
:102D780024C020F025C021F026C022F027C023F06F
:102D8800120029C020F02AC021F02BC022F02CC04C
:102D980023F012002AC02EF02F6A306A29342E360A
:102DA80001E32F802E50316E3150D8A407D0000E89
:102DB800286E000E296E000E2A6E12002DC02EF00D
:102DC8002F6A306A2C342E3601E32F802E50366E4F
:102DD8003650D8A407D0000E286E000E296E000EBB
:102DE8002A6E120036507B0F31262AC036F02D503D
:102DF800361A800E3616298E2C8EFF0E2B16FF0ED5
:102E08002C16000E2D16000E326E000E336E000EBC
:102E1800346E070E356E28A006D02B5032262C5063
:102E280033222D503422D8902A3229322832D89091
:102E38002B362C362D36352EEED7090E356E28A0BA
:102E480006D02B5032262C5033222D503422D890C5
:102E58002A3229322832D890343233323232352E5F
:102E6800EED732C014F033C015F034C016F031C0BC
:102E780017F036C018F0F2EC18F014C028F015C09E
:102E880029F016C02AF0120039C03DF03E6A3F6AA8
:102E980038343D3601E33E803D500001646F645193
:102EA800D8A407D0000E376E000E386E000E396EAB
:102EB80012003CC03DF03E6A3F6A3B343D3601E3B8
:102EC8003E803D50656F6551D8A407D0000E376E1F
:102ED800000E386E000E396E1200000E616F000E83
:102EE800626F000E636F6551890F645F39C065F0CA
:102EF8003C50651B800E6517388EFF0E3716FF0E87
:102F08003816000E39163B8EFF0E3A16FF0E3B168A
:102F1800000E3C16180E606FD89061376237633721
:102F28003A50375C3B5038583C503958D8A007D0F5
:102F38003A50375E3B50385A3C50395A6181D890E4
:102F4800373638363936602FE7D761C014F062C09B
:102F580015F063C016F064C017F065C018F0F2EC05
:102F680018F014C037F015C038F016C039F0120048
:102F780087C014F088C015F089C016F08D0E176E42
:102F8800000E186E1BEC1BF000018EAF10D089AF3D
:102F980007D0000E876F800E886FBF0E896F1200F2
:102FA800000E876F000E886F000E896F12008E5119
:102FB80004E1150E8D5DD8A007D087C087F088C0C2
:102FC80088F089C089F0120087C040F088C041F0BD
:102FD80089C042F0D8EC15F040C071F041C072F0E1
:102FE80042C073F043C074F0DEEC1AF071C08AF08E
:102FF80072C08BF073C08CF087C014F088C015F0D5
:1030080089C016F08AC017F08BC018F08CC019F070
:1030180049EC19F0D8B016D08AC07BF08BC07CF090
:103028008CC07DF0000E00017E6F800E7F6FBF0E9A
:10303800806F81EC10F07BC087F07CC088F07DC089
:1030480089F012008AC087F08BC088F08CC089F0A4
:1030580012008CC022F08DC023F0000E256E030EE6
:10306800246E78EC1DF08AC08EF08BC08FF0225051
:1030780000018E2723508F238EC0F6FF8FC0F7FFE5
:103088000900F5CF90F00900F5CF91F00A00F5CFCF
:1030980092F040D090C02BF091C02CF092C02DF04F
:1030A80087C028F088C029F089C02AF0CEEC16F035
:1030B80028C07BF029C07CF02AC07DF0000E256E68
:1030C800030E246E00018C07D8A08D078CC022F057
:1030D8008DC023F078EC1DF08AC08EF08BC08FF085
:1030E800225000018E2723508F238EC0F6FF8FC0F9
:1030F800F7FF0900F5CF7EF00900F5CF7FF00A0051
:10310800F5CF80F081EC10F07BC090F07CC091F09E
:103118007DC092F000018C518D11D8A4BBD790C00E
:1031280087F091C088F092C089F01200100E146EDA
:10313800490E156E400E166EA2C017F0A3C018F007
:10314800A4C019F049EC19F0D8B024D0A2C07BF083
:10315800A3C07CF0A4C07DF0CC0E00017E6F960E5B
:103168007F6FC00E806F81EC10F07BC0A5F07CC033
:10317800A6F07DC0A7F0A5C095F0A6C096F0A7C0A0
:1031880097F026EC0EF095C0A2F096C0A3F097C079
:10319800A4F01200A2C07BF0A3C07CF0A4C07DF014
:1031A800100E00017E6FC90E7F6F3F0E806F81EC9D
:1031B80010F07BC0A5F07CC0A6F07DC0A7F0A5C02C
:1031C80095F0A6C096F0A7C097F026EC0EF095C033
:1031D800A2F096C0A3F097C0A4F012001750D8B47C
:1031E80005D0145015101610D8A40CD0000E146E6B
:1031F800000E156E000E166E1200172AD8901632A1
:1032080015321432000E1414196E000E15141A6EAD
:10321800FE0E16141B6E19501A101B10D8B40CD0C1
:10322800ECD7172A010E1426000E1522000E1622BE
:10323800D890163215321432000E1414196E000E7E
:1032480015141A6EFF0E16141B6E19501A101B1047
:10325800D8B406D0E6D71706D890143615361636E1
:1032680015BE03D0020E1760F6D717A0159ED8908A
:103278001732175016121850D8A4168E14C014F00E
:1032880015C015F016C016F0120016AE16D014C0F0
:103298001AF015C01BF016C01CF01A1E1B1E1C1EAF
:1032A8001A2A000E1B221C22000E1A24146E000E6D
:1032B8001B20156E800E1C20166E19AE16D017C076
:1032C8001AF018C01BF019C01CF01A1E1B1E1C1E79
:1032D8001A2A000E1B221C22000E1A24176E000E3A
:1032E8001B20186E800E1C20196E000E141A000E7A
:1032F800151A800E161A000E171A000E181A800ECC
:10330800191A1750145C1850155819501658D8B077
:1033180002D0D8901200D880120000019F6F0001DF
:103328009F29A06F000EA16F14D0A051010D000EAF
:10333800F324D96E010EF420DA6EA151010D8D0E21
:10334800F324E16E000EF420E26EDFCFE7FFA12B3D
:10335800A02BA051010D000EF324D96E010EF4200C
:10336800DA6E2C0EDE18D8A4E0D7A12BA151010DDE
:10337800000EF324D96E010EF420DA6EDF50DD6FF3
:103388008D0E866F000E876FB0EC1DF086C09CF026
:1033980087C09DF088C09EF09CC089F09DC08AF0CF
:1033A8009EC08BF0120000019F6F00019F29A16F42
:1033B800000EA06F14D0A151010D000EF324D96E98
:1033C800010EF420DA6EA051010D8D0EF324E16E8A
:1033D800000EF420E26EDFCFE7FFA02BA12BA15156
:1033E800010D000EF324D96E010EF420DA6E2C0EB6
:1033F800DE18D8A4E0D7A12BA151010D000EF324AB
:10340800D96E010EF420DA6EDF50DE6F8D0E866FF6
:10341800000E876FB0EC1DF086C09CF087C09DF051
:1034280088C09EF09CC089F09DC08AF09EC08BF039
:103438001200000E1F6E1DAE06D01C6C1D1ED8B0EB
:103448001D2A010E1F6E1BAE06D01A6C1B1ED8B0AB
:103458001B2A010E1F1A000E216E000E206E1C5032
:103468001D10D8B41CD0010E1E6E04D0D8901C3686
:103478001D361E2A1DAEFAD7D890203621361C508C
:103488001A5C1D501B58D8A005D01C501A5E1D5040
:103498001B5A2080D8901D321C321E2EEDD71F508B
:1034A800D8B404D0206C211ED8B0212A20C01AF02C
:1034B80021C01BF01200000E256E000E266E000EB5
:1034C800276E000E286E2150221023102410D8B425
:1034D8002AD0010E296E06D0D890213622362336FE
:1034E8002436292A24AEF8D7D8902536263627360A
:1034F800283621501D5C22501E5823501F58245036
:103508002058D8A009D021501D5E22501E5A2350A1
:103518001F5A2450205A2580D89024322332223230
:103528002132292EE1D725C01DF026C01EF027C064
:103538001FF028C020F01200000E156E960E146EB3
:103548002EEC1DF0D00ED4EC1DF0190E0AEC1EF076
:10355800070E0AEC1EF025EC1EF0D00ED4EC1DF080
:103568006B0E0AEC1EF0010E0AEC1EF025EC1EF0A4
:10357800D00ED4EC1DF01A0E0AEC1EF0000E0AEC68
:103588001EF025EC1EF0D00ED4EC1DF01B0E0AEC3C
:103598001EF0180E0AEC1EF025EC1EF0D00ED4EC2E
:1035A8001DF0380E0AEC1EF0010E0AEC1EF025EC98
:1035B8001EF01200000E00017A6F8E0E796F74AF44
:1035C80011D0741F731F721F716D000E7223732345
:1035D8007423010E7A6F06D0D89074337333723324
:1035E8007133792B000E7115756F000E7215766F99
:1035F800000E7315776FFF0E7415786F755176117D
:1036080077117811D8A4E8D771C014F072C015F0FA
:1036180073C016F079C017F07AC018F0F2EC18F001
:1036280014C071F015C072F016C073F01200145077
:1036380015101610D8A409D017C0D9FF18C0DAFF82
:10364800000EDE6E000EDD6E120016507F0B196E36
:103658001A6AD89019361A3617C0D9FF18C0DAFF77
:1036680019C0DEFF1AC0DDFF15AE03D0196A192A8A
:1036780001D0196A195017C0D9FF18C0DAFFDE1235
:10368800000EDD1217C0D9FF18C0DAFF820EDE2641
:10369800FF0EDD2216801682168416861688168A74
:1036A800169C159E120000019C6F00019C299E6FBC
:1036B800000E9D6F14D09E51010D000EF324D96E9B
:1036C800010EF420DA6E9D51010D8D0EF324E16E8A
:1036D800000EF420E26EDFCFE7FF9D2B9E2B9E515C
:1036E800010D000EF324D96E010EF420DA6E2C0EB3
:1036F800DE18D8A4E0D78D0E866F000E876FB0EC69
:103708001DF086C099F087C09AF088C09BF099C0D8
:1037180089F09AC08AF09BC08BF01200000E00015D
:10372800736F13D07351010D000EF324D96E010E7F
:10373800F420DA6E7351010D600EF324E16E000E71
:10374800F420E26EDFCFE7FF732B7351010D000EFB
:10375800F324D96E010EF420DA6E2C0EDE18D8A4EC
:10376800E1D7600E206E000E216E54EC16F020C0DA
:103778006FF021C070F022C071F023C072F06FC0EA
:103788002EF070C02FF071C030F072C031F012000E
:10379800000E196E15AE06D0146C151ED8B0152A79
:1037A800010E196E17AE04D0166C171ED8B0172A62
:1037B80016501710D8B418D0010E186E04D0D8902F
:1037C80016361736182A17AEFAD71650145C175043
:1037D8001558D8A004D01650145E1750155AD89012
:1037E80017321632182EF1D71950D8B404D0146CE9
:1037F800151ED8B0152A14C014F015C015F0120003
:10380800949C948E000E00017E6F800E7F6FBF0E19
:10381800806F87C071F088C072F089C073F08AC069
:1038280074F0DEEC1AF071C03AF072C03BF073C06D
:103838003CF0240E376EF40E386E470E396E48ECA5
:1038480017F037C07BF038C07CF039C07DF081ECD0
:1038580010F07BC040F07CC041F07DC042F0D8EC55
:1038680015F04050AF6E200EAC6E900EAB6E12008D
:10387800185019101A101B10D8B424D0010E1C6E41
:1038880006D0D890183619361A361B361C2A1BAEA5
:10389800F8D71850145C195015581A5016581B5060
:1038A8001758D8A008D01850145E1950155A1A5035
:1038B800165A1B50175AD8901B321A32193218321E
:1038C8001C2EE7D714C014F015C015F016C016F05A
:1038D80017C017F012008E0E246E06D0D8901F3233
:1038E8001E321D321C32242A000E1C14206E000EBB
:1038F8001D14216E000E1E14226EFF0E1F14236E5F
:103908002050211022102310D8A4E8D71CC014F08E
:103918001DC015F01EC016F024C017F0000E186E5A
:10392800F2EC18F014C01CF015C01DF016C01EF003
:103938001200000E1C6E000E1D6E000E1E6E000E94
:103948001F6E14A008D018501C2619501D221A509A
:103958001E221B501F22D890183619361A361B36CD
:10396800D89017321632153214321450151016101A
:103978001710D8A4E6D71CC014F01DC015F01EC03F
:1039880016F01FC017F0120014D015C0F6FF16C0AD
:10399800F7FFF86A070EF76403D00800F55005D062
:1039A800F6CFE1FFF7CFE2FFE7501FEC1EF0154A14
:1039B800162A15C0F6FF16C0F7FFF86A070EF76457
:1039C80003D00800F55005D0F6CFE1FFF7CFE2FFAE
:1039D800E7500009D8B41200D8D7000192519311CA
:1039E8009411D8B406D0000E921B000E931B800EC3
:1039F800941B8FC07BF090C07CF091C07DF092C08A
:103A08007EF093C07FF094C080F081EC10F07BC012
:103A18008FF07CC090F07DC091F01200000E1F6EF8
:103A28001DAE06D01C6C1D1ED8B01D2A010E1F6EBF
:103A38001CC014F01DC015F0166A8E0E176E1FC03C
:103A480018F0F2EC18F014C01CF015C01DF016C0E8
:103A58001EF01200000E176E000E166E0FD0000E2C
:103A6800196E000E186E195007E1A50E185CD8B033
:103A780003D0184A192AF7D7164A172A1650145C81
:103A880017501558D8A01200EAD701EE00F0770EAB
:103A9800EE6AE806FDE100EED2F00D0EEE6AE806E9
:103AA800FDE100EE45F0070EEE6AE806FDE14C90F8
:103AB8004C92000EF86E000109EF00F014C01AF0E5
:103AC80015C01BF008D01AC0D9FF1BC0DAFF16C0FA
:103AD800DFFF1A4A1B2A1806D8A019061828F3E18E
:103AE8001928D8B41200EFD722502402F3CF26F0B9
:103AF800F4CF27F022502502F35027262350240222
:103B0800F350272626C022F027C023F01200166E95
:103B1800010E156E200E1618D8B408D00E0E1660B9
:103B280003D0090E166002D0000E156E15C014F0F1
:103B380014301200146EC586C7A0FED7C9CF15F081
:103B48001450D8A403D030EC1EF002D02BEC1EF099
:103B580035EC1EF01550120086C07BF087C07CF053
:103B6800000E00017D6F000E7E6FE9EC0AF07BC04D
:103B780086F07CC087F07DC088F01200375038107E
:103B88003910D8B406D0000E371A000E381A800E35
:103B9800391A37C037F038C038F039C039F0120058
:103BA800156EC580C5B0FED79E96C7A6FAD7155024
:103BB8000AEC1EF0C5AC120025EC1EF0F2D7166E0A
:103BC800000E156E3A0E166005D02F0E166402D040
:103BD800010E156E15C014F01430120093809382F4
:103BE800500EC76E280EC66E000EC56E130EC86E38
:103BF8009D869E961200156EC582C5B2FED79E960A
:103C0800C7A6120015500AEC1EF01200146E14C05C
:103C1800C9FF35EC1EF0C5AC02D0010E1200020E31
:103C28001200D00ED4EC1DF03B0E0AEC1EF0D10EA3
:103C3800FFEC1DF01200146E9EA8FED714C0ADFF55
:103C48001200C584C5B4FED79E96C7501200C58A17
:103C5800C588C5A81200FDD7C59AC588C5A8120091
:0A3C6800FDD79EA6FED79E9612001F
:107E8A0000010000000A00000064000000E803008E
:107E9A000010270000A086010040420F008096983B
:107EAA000000E1F50500CA9A3B00803F002041002E
:107EBA00C842007A44401C4650C347247449971864
:107ECA004BBCBE4C6B6E4E03155079AD60F34971D5
:107EDA0000803FCDCC3DD7233C12833AB7D138C678
:107EEA002737388635C0D633CC2B32708930E7DB5A
:107EFA002EE53C1E42A20DF44A489595C7C1DC45C1
:107F0A00DC6DC3B333403401489DB04500DA42000A
:107F1A00803F20746865746178203D20252E326682
:107F2A000D0A0020746865746179203D20252E327F
:107F3A00660D0A002074686574617A203D20252E3A
:107F4A0032660D0A00204778203D20252E3266250C
:107F5A00630D0A00204779203D20252E32662563CD
:107F6A000D0A0020477A203D20252E326625630D12
:107F7A000A002064697370203D20252E32660D0A9E
:107F8A0000204178203D20252E326620670D0A0008
:107F9A00204179203D20252E326620670D0A0020D7
:107FAA00417A203D20252E326620670D0A00205492
:107FBA00203D20252E326625630D0A004C6F6E6720
:107FCA0069747564653A20004C61746974756465F6
:107FDA003A20005554432054696D653A20002564BF
:107FEA003A25643A256400252E3035660D0A0020AC
:057FFA000D0A2000004B
:020000040020DA
:08000000FFFFFFFFFFFFFFFF00
:020000040030CA
:0E00000000091F1EFF0181FF0FC00FE00F401F
:00000001FF
